S01300004175746F7361725F44696F2E73726563B7
S11300000C942A000C943F000C943F000C943F0085
S11300100C943F000C943F000C943F000C943F0060
S11300200C943F000C943F000C943F000C943F0050
S11300300C943F000C943F000C943F000C943F0040
S11300400C943F000C943F000C943F000C943F0030
S11300500C943F0011241FBECFE5D8E0DEBFCDBF16
S113006010E0A0E6B0E0E6E7F2E002C005900D92F1
S1130070A037B107D9F70E942A010C9439010C94D6
S11300800000843008F05DC090E0FC01EE0FFF1F1B
S1130090E80FF91FEC59FF4F20812130C9F028F0F7
S11300A0223049F12330D1F14EC029B3FC01EE0FC7
S11300B0FF1F8E0F9F1FFC01EC59FF4F822F90E012
S11300C0018002C0959587950A94E2F7817008959E
S11300D026B3FC01EE0FFF1F8E0F9F1FFC01EC598E
S11300E0FF4F822F90E0018002C0959587950A9476
S11300F0E2F78170089523B3FC01EE0FFF1F8E0F0A
S11301009F1FFC01EC59FF4F822F90E0018002C039
S1130110959587950A94E2F78170089520B3FC01C0
S1130120EE0FFF1F8E0F9F1FFC01EC59FF4F822F14
S113013090E0018002C0959587950A94E2F781705A
S1130140089580E0089580E008958230F0F490E00E
S1130150FC01EE0FFF1FE05AFF4F2181211115C052
S1130160880F991FFC01E05AFF4F8081813041F0D4
S113017028F0823039F0833039F008956BBB08954C
S113018068BB089565BB089562BB0895843008F088
S11301904FC090E0FC01EE0FFF1FE80FF91FEC5970
S11301A0FF4F2081213041F080F0223041F0233094
S11301B049F0A0E0B0E00BC0A8E3B0E008C0A5E3BC
S11301C0B0E005C0A2E3B0E002C0ABE3B0E02C9124
S11301D0FC01EE0FFF1F8E0F9F1FFC01EC59FF4F18
S11301E03181822F90E0032E02C0959587950A9461
S11301F0E2F780FF0DC02C9181E090E002C0880FEF
S1130200991F3A95E2F7809582238C9380E00895B4
S11302102C9181E090E002C0880F991F3A95E2F793
S1130220922F982B9C939C91892B8C9381E0089519
S113023080E008958FEF84BB11BA8AB38E7F8ABBA6
S11302408AB38F7D8ABB8AB38F778ABB87B3816079
S113025087BB08950E941A0182E00E944100811127
S113026004C06FEF0E94A500F7CF81E00E94C60092
S1090270F3CFF894FFCF68
S1130276020003010000010100000007010005015E
S9030000FC
